{"abi":[{"type":"function","name":"getTotalStaked","inputs":[],"outputs":[{"name":"","type":"uint256","internalType":"uint256"}],"stateMutability":"view"},{"type":"function","name":"stake","inputs":[{"name":"amount","type":"uint256","internalType":"uint256"}],"outputs":[],"stateMutability":"payable"},{"type":"function","name":"stakedAmount","inputs":[{"name":"","type":"address","internalType":"address"}],"outputs":[{"name":"","type":"uint256","internalType":"uint256"}],"stateMutability":"view"},{"type":"function","name":"totalStaked","inputs":[],"outputs":[{"name":"","type":"uint256","internalType":"uint256"}],"stateMutability":"view"},{"type":"function","name":"unstake","inputs":[{"name":"amount","type":"uint256","internalType":"uint256"}],"outputs":[],"stateMutability":"nonpayable"},{"type":"event","name":"Staked","inputs":[{"name":"user","type":"address","indexed":true,"internalType":"address"},{"name":"amount","type":"uint256","indexed":false,"internalType":"uint256"}],"anonymous":false},{"type":"event","name":"Unstaked","inputs":[{"name":"user","type":"address","indexed":true,"internalType":"address"},{"name":"amount","type":"uint256","indexed":false,"internalType":"uint256"}],"anonymous":false}],"bytecode":{"object":"0x6080604052348015600e575f5ffd5b506107af8061001c5f395ff3fe608060405260043610610049575f3560e01c80630917e7761461004d5780632e17de7814610077578063817b1cd21461009f578063a694fc3a146100c9578063f9931855146100e5575b5f5ffd5b348015610058575f5ffd5b50610061610121565b60405161006e919061045b565b60405180910390f35b348015610082575f5ffd5b5061009d600480360381019061009891906104a2565b610129565b005b3480156100aa575f5ffd5b506100b36102ea565b6040516100c0919061045b565b60405180910390f35b6100e360048036038101906100de91906104a2565b6102ef565b005b3480156100f0575f5ffd5b5061010b60048036038101906101069190610527565b61042e565b604051610118919061045b565b60405180910390f35b5f5f54905090565b5f811161016b576040517f08c379a0000000000000000000000000000000000000000000000000000000008152600401610162906105ac565b60405180910390fd5b8060015f3373ffffffffffffffffffffffffffffffffffffffff1673ffffffffffffffffffffffffffffffffffffffff1681526020019081526020015f205410156101eb576040517f08c379a00000000000000000000000000000000000000000000000000000000081526004016101e29061063a565b60405180910390fd5b8060015f3373ffffffffffffffffffffffffffffffffffffffff1673ffffffffffffffffffffffffffffffffffffffff1681526020019081526020015f205f8282546102379190610685565b92505081905550805f5f82825461024e9190610685565b925050819055503373ffffffffffffffffffffffffffffffffffffffff166108fc8290811502906040515f60405180830381858888f19350505050158015610298573d5f5f3e3d5ffd5b503373ffffffffffffffffffffffffffffffffffffffff167f0f5bb82176feb1b5e747e28471aa92156a04d9f3ab9f45f28e2d704232b93f75826040516102df919061045b565b60405180910390a250565b5f5481565b5f8111610331576040517f08c379a0000000000000000000000000000000000000000000000000000000008152600401610328906105ac565b60405180910390fd5b803414610373576040517f08c379a000000000000000000000000000000000000000000000000000000000815260040161036a90610728565b60405180910390fd5b8060015f3373ffffffffffffffffffffffffffffffffffffffff1673ffffffffffffffffffffffffffffffffffffffff1681526020019081526020015f205f8282546103bf9190610746565b92505081905550805f5f8282546103d69190610746565b925050819055503373ffffffffffffffffffffffffffffffffffffffff167f9e71bc8eea02a63969f509818f2dafb9254532904319f9dbda79b67bd34a5f3d82604051610423919061045b565b60405180910390a250565b6001602052805f5260405f205f915090505481565b5f819050919050565b61045581610443565b82525050565b5f60208201905061046e5f83018461044c565b92915050565b5f5ffd5b61048181610443565b811461048b575f5ffd5b50565b5f8135905061049c81610478565b92915050565b5f602082840312156104b7576104b6610474565b5b5f6104c48482850161048e565b91505092915050565b5f73ffffffffffffffffffffffffffffffffffffffff82169050919050565b5f6104f6826104cd565b9050919050565b610506816104ec565b8114610510575f5ffd5b50565b5f81359050610521816104fd565b92915050565b5f6020828403121561053c5761053b610474565b5b5f61054984828501610513565b91505092915050565b5f82825260208201905092915050565b7f416d6f756e74206d7573742062652067726561746572207468616e20300000005f82015250565b5f610596601d83610552565b91506105a182610562565b602082019050919050565b5f6020820190508181035f8301526105c38161058a565b9050919050565b7f416d6f756e74206d757374206265206c657373207468616e206f7220657175615f8201527f6c20746f207374616b6564416d6f756e74000000000000000000000000000000602082015250565b5f610624603183610552565b915061062f826105ca565b604082019050919050565b5f6020820190508181035f83015261065181610618565b9050919050565b7f4e487b71000000000000000000000000000000000000000000000000000000005f52601160045260245ffd5b5f61068f82610443565b915061069a83610443565b92508282039050818111156106b2576106b1610658565b5b92915050565b7f416d6f756e74206d75737420626520657175616c20746f206d73672e76616c755f8201527f6500000000000000000000000000000000000000000000000000000000000000602082015250565b5f610712602183610552565b915061071d826106b8565b604082019050919050565b5f6020820190508181035f83015261073f81610706565b9050919050565b5f61075082610443565b915061075b83610443565b925082820190508082111561077357610772610658565b5b9291505056fea2646970667358221220b07676d44946373e6d0d7e4e2db04db7818c0bc3337a445023e17644794fb4b864736f6c634300081e0033","linkReferences":{}},"methodIdentifiers":{"getTotalStaked()":"0917e776","stake(uint256)":"a694fc3a","stakedAmount(address)":"f9931855","totalStaked()":"817b1cd2","unstake(uint256)":"2e17de78"},"id":0}