{"abi":[{"type":"constructor","inputs":[],"stateMutability":"nonpayable"},{"type":"function","name":"allowance","inputs":[{"name":"owner","type":"address","internalType":"address"},{"name":"spender","type":"address","internalType":"address"}],"outputs":[{"name":"","type":"uint256","internalType":"uint256"}],"stateMutability":"view"},{"type":"function","name":"approve","inputs":[{"name":"spender","type":"address","internalType":"address"},{"name":"value","type":"uint256","internalType":"uint256"}],"outputs":[{"name":"","type":"bool","internalType":"bool"}],"stateMutability":"nonpayable"},{"type":"function","name":"balanceOf","inputs":[{"name":"account","type":"address","internalType":"address"}],"outputs":[{"name":"","type":"uint256","internalType":"uint256"}],"stateMutability":"view"},{"type":"function","name":"decimals","inputs":[],"outputs":[{"name":"","type":"uint8","internalType":"uint8"}],"stateMutability":"view"},{"type":"function","name":"getTotalStaked","inputs":[],"outputs":[{"name":"","type":"uint256","internalType":"uint256"}],"stateMutability":"view"},{"type":"function","name":"name","inputs":[],"outputs":[{"name":"","type":"string","internalType":"string"}],"stateMutability":"view"},{"type":"function","name":"pingForGettingReward","inputs":[],"outputs":[],"stateMutability":"nonpayable"},{"type":"function","name":"stake","inputs":[{"name":"_amount","type":"uint256","internalType":"uint256"}],"outputs":[],"stateMutability":"payable"},{"type":"function","name":"stakedAmount","inputs":[{"name":"","type":"address","internalType":"address"}],"outputs":[{"name":"","type":"uint256","internalType":"uint256"}],"stateMutability":"view"},{"type":"function","name":"stakedTime","inputs":[{"name":"","type":"address","internalType":"address"}],"outputs":[{"name":"","type":"uint256","internalType":"uint256"}],"stateMutability":"view"},{"type":"function","name":"symbol","inputs":[],"outputs":[{"name":"","type":"string","internalType":"string"}],"stateMutability":"view"},{"type":"function","name":"toke_time","inputs":[],"outputs":[{"name":"","type":"uint256","internalType":"uint256"}],"stateMutability":"view"},{"type":"function","name":"totalStaked","inputs":[],"outputs":[{"name":"","type":"uint256","internalType":"uint256"}],"stateMutability":"view"},{"type":"function","name":"totalSupply","inputs":[],"outputs":[{"name":"","type":"uint256","internalType":"uint256"}],"stateMutability":"view"},{"type":"function","name":"transfer","inputs":[{"name":"to","type":"address","internalType":"address"},{"name":"value","type":"uint256","internalType":"uint256"}],"outputs":[{"name":"","type":"bool","internalType":"bool"}],"stateMutability":"nonpayable"},{"type":"function","name":"transferFrom","inputs":[{"name":"from","type":"address","internalType":"address"},{"name":"to","type":"address","internalType":"address"},{"name":"value","type":"uint256","internalType":"uint256"}],"outputs":[{"name":"","type":"bool","internalType":"bool"}],"stateMutability":"nonpayable"},{"type":"function","name":"unstake","inputs":[{"name":"_amount","type":"uint256","internalType":"uint256"}],"outputs":[],"stateMutability":"payable"},{"type":"event","name":"Approval","inputs":[{"name":"owner","type":"address","indexed":true,"internalType":"address"},{"name":"spender","type":"address","indexed":true,"internalType":"address"},{"name":"value","type":"uint256","indexed":false,"internalType":"uint256"}],"anonymous":false},{"type":"event","name":"ETHStaked","inputs":[{"name":"_user","type":"address","indexed":true,"internalType":"address"},{"name":"_amount","type":"uint256","indexed":false,"internalType":"uint256"}],"anonymous":false},{"type":"event","name":"ETHUnstaked","inputs":[{"name":"_user","type":"address","indexed":true,"internalType":"address"},{"name":"_amount","type":"uint256","indexed":false,"internalType":"uint256"}],"anonymous":false},{"type":"event","name":"Transfer","inputs":[{"name":"from","type":"address","indexed":true,"internalType":"address"},{"name":"to","type":"address","indexed":true,"internalType":"address"},{"name":"value","type":"uint256","indexed":false,"internalType":"uint256"}],"anonymous":false},{"type":"error","name":"ERC20InsufficientAllowance","inputs":[{"name":"spender","type":"address","internalType":"address"},{"name":"allowance","type":"uint256","internalType":"uint256"},{"name":"needed","type":"uint256","internalType":"uint256"}]},{"type":"error","name":"ERC20InsufficientBalance","inputs":[{"name":"sender","type":"address","internalType":"address"},{"name":"balance","type":"uint256","internalType":"uint256"},{"name":"needed","type":"uint256","internalType":"uint256"}]},{"type":"error","name":"ERC20InvalidApprover","inputs":[{"name":"approver","type":"address","internalType":"address"}]},{"type":"error","name":"ERC20InvalidReceiver","inputs":[{"name":"receiver","type":"address","internalType":"address"}]},{"type":"error","name":"ERC20InvalidSender","inputs":[{"name":"sender","type":"address","internalType":"address"}]},{"type":"error","name":"ERC20InvalidSpender","inputs":[{"name":"spender","type":"address","internalType":"address"}]}],"bytecode":{"object":"0x6080604052600160085562093a8060095534801561001b575f5ffd5b506040518060400160405280600b81526020017f5374616b6520546f6b656e0000000000000000000000000000000000000000008152506040518060400160405280600381526020017f53544b0000000000000000000000000000000000000000000000000000000000815250816003908161009791906102ec565b5080600490816100a791906102ec565b5050506103bb565b5f81519050919050565b7f4e487b71000000000000000000000000000000000000000000000000000000005f52604160045260245ffd5b7f4e487b71000000000000000000000000000000000000000000000000000000005f52602260045260245ffd5b5f600282049050600182168061012a57607f821691505b60208210810361013d5761013c6100e6565b5b50919050565b5f819050815f5260205f209050919050565b5f6020601f8301049050919050565b5f82821b905092915050565b5f6008830261019f7fffffffffffffffffffffffffffffffffffffffffffffffffffffffffffffffff82610164565b6101a98683610164565b95508019841693508086168417925050509392505050565b5f819050919050565b5f819050919050565b5f6101ed6101e86101e3846101c1565b6101ca565b6101c1565b9050919050565b5f819050919050565b610206836101d3565b61021a610212826101f4565b848454610170565b825550505050565b5f5f905090565b610231610222565b61023c8184846101fd565b505050565b5b8181101561025f576102545f82610229565b600181019050610242565b5050565b601f8211156102a45761027581610143565b61027e84610155565b8101602085101561028d578190505b6102a161029985610155565b830182610241565b50505b505050565b5f82821c905092915050565b5f6102c45f19846008026102a9565b1980831691505092915050565b5f6102dc83836102b5565b9150826002028217905092915050565b6102f5826100af565b67ffffffffffffffff81111561030e5761030d6100b9565b5b6103188254610113565b610323828285610263565b5f60209050601f831160018114610354575f8415610342578287015190505b61034c85826102d1565b8655506103b3565b601f19841661036286610143565b5f5b8281101561038957848901518255600182019150602085019450602081019050610364565b868310156103a657848901516103a2601f8916826102b5565b8355505b6001600288020188555050505b505050505050565b6119b1806103c85f395ff3fe6080604052600436106100fd575f3560e01c8063313ce5671161009457806395d89b411161006357806395d89b411461031f578063a694fc3a14610349578063a9059cbb14610365578063dd62ed3e146103a1578063f9931855146103dd576100fd565b8063313ce5671461026557806370a082311461028f578063817b1cd2146102cb578063854b0cae146102f5576100fd565b806315bec3aa116100d057806315bec3aa146101cd57806318160ddd146101e357806323b872dd1461020d5780632e17de7814610249576100fd565b8063067095551461010157806306fdde031461013d5780630917e77614610167578063095ea7b314610191575b5f5ffd5b34801561010c575f5ffd5b50610127600480360381019061012291906112c8565b610419565b604051610134919061130b565b60405180910390f35b348015610148575f5ffd5b5061015161042e565b60405161015e9190611394565b60405180910390f35b348015610172575f5ffd5b5061017b6104be565b604051610188919061130b565b60405180910390f35b34801561019c575f5ffd5b506101b760048036038101906101b291906113de565b6104c7565b6040516101c49190611436565b60405180910390f35b3480156101d8575f5ffd5b506101e16104e9565b005b3480156101ee575f5ffd5b506101f76106f7565b604051610204919061130b565b60405180910390f35b348015610218575f5ffd5b50610233600480360381019061022e919061144f565b610700565b6040516102409190611436565b60405180910390f35b610263600480360381019061025e919061149f565b61072e565b005b348015610270575f5ffd5b506102796108ac565b60405161028691906114e5565b60405180910390f35b34801561029a575f5ffd5b506102b560048036038101906102b091906112c8565b6108b4565b6040516102c2919061130b565b60405180910390f35b3480156102d6575f5ffd5b506102df6108f9565b6040516102ec919061130b565b60405180910390f35b348015610300575f5ffd5b506103096108ff565b604051610316919061130b565b60405180910390f35b34801561032a575f5ffd5b50610333610905565b6040516103409190611394565b60405180910390f35b610363600480360381019061035e919061149f565b610995565b005b348015610370575f5ffd5b5061038b600480360381019061038691906113de565b610b21565b6040516103989190611436565b60405180910390f35b3480156103ac575f5ffd5b506103c760048036038101906103c291906114fe565b610b43565b6040516103d4919061130b565b60405180910390f35b3480156103e8575f5ffd5b5061040360048036038101906103fe91906112c8565b610bc5565b604051610410919061130b565b60405180910390f35b6007602052805f5260405f205f915090505481565b60606003805461043d90611569565b80601f016020809104026020016040519081016040528092919081815260200182805461046990611569565b80156104b45780601f1061048b576101008083540402835291602001916104b4565b820191905f5260205f20905b81548152906001019060200180831161049757829003601f168201915b5050505050905090565b5f600554905090565b5f5f6104d1610bda565b90506104de818585610be1565b600191505092915050565b5f60065f3373ffffffffffffffffffffffffffffffffffffffff1673ffffffffffffffffffffffffffffffffffffffff1681526020019081526020015f205411610568576040517f08c379a000000000000000000000000000000000000000000000000000000000815260040161055f906115e3565b60405180910390fd5b4260095460075f3373ffffffffffffffffffffffffffffffffffffffff1673ffffffffffffffffffffffffffffffffffffffff1681526020019081526020015f20546105b4919061162e565b106105f4576040517f08c379a00000000000000000000000000000000000000000000000000000000081526004016105eb906116ab565b60405180910390fd5b5f6201518060075f3373ffffffffffffffffffffffffffffffffffffffff1673ffffffffffffffffffffffffffffffffffffffff1681526020019081526020015f20544261064291906116c9565b61064c9190611729565b90505f8160085460065f3373ffffffffffffffffffffffffffffffffffffffff1673ffffffffffffffffffffffffffffffffffffffff1681526020019081526020015f205461069b9190611759565b6106a59190611759565b90506106b18133610bf3565b4260075f3373ffffffffffffffffffffffffffffffffffffffff1673ffffffffffffffffffffffffffffffffffffffff1681526020019081526020015f20819055505050565b5f600254905090565b5f5f61070a610bda565b9050610717858285610c01565b610722858585610c94565b60019150509392505050565b5f8111610770576040517f08c379a0000000000000000000000000000000000000000000000000000000008152600401610767906117e4565b60405180910390fd5b8060065f3373ffffffffffffffffffffffffffffffffffffffff1673ffffffffffffffffffffffffffffffffffffffff1681526020019081526020015f205410156107f0576040517f08c379a00000000000000000000000000000000000000000000000000000000081526004016107e790611872565b60405180910390fd5b8060055f82825461080191906116c9565b925050819055508060065f3373ffffffffffffffffffffffffffffffffffffffff1673ffffffffffffffffffffffffffffffffffffffff1681526020019081526020015f205f82825461085491906116c9565b925050819055506108653382610d84565b3373ffffffffffffffffffffffffffffffffffffffff166108fc8290811502906040515f60405180830381858888f193505050501580156108a8573d5f5f3e3d5ffd5b5050565b5f6012905090565b5f5f5f8373ffffffffffffffffffffffffffffffffffffffff1673ffffffffffffffffffffffffffffffffffffffff1681526020019081526020015f20549050919050565b60055481565b60095481565b60606004805461091490611569565b80601f016020809104026020016040519081016040528092919081815260200182805461094090611569565b801561098b5780601f106109625761010080835404028352916020019161098b565b820191905f5260205f20905b81548152906001019060200180831161096e57829003601f168201915b5050505050905090565b5f81116109d7576040517f08c379a00000000000000000000000000000000000000000000000000000000081526004016109ce906117e4565b60405180910390fd5b803414610a19576040517f08c379a0000000000000000000000000000000000000000000000000000000008152600401610a1090611900565b60405180910390fd5b8060055f828254610a2a919061162e565b925050819055508060065f3373ffffffffffffffffffffffffffffffffffffffff1673ffffffffffffffffffffffffffffffffffffffff1681526020019081526020015f205f828254610a7d919061162e565b92505081905550610a8e8133610bf3565b4260075f3373ffffffffffffffffffffffffffffffffffffffff1673ffffffffffffffffffffffffffffffffffffffff1681526020019081526020015f20819055503373ffffffffffffffffffffffffffffffffffffffff167f312cc38607714004fdfddb7bb3f3bceadf5d26c77671e944d0270d45c5222b3b82604051610b16919061130b565b60405180910390a250565b5f5f610b2b610bda565b9050610b38818585610c94565b600191505092915050565b5f60015f8473ffffffffffffffffffffffffffffffffffffffff1673ffffffffffffffffffffffffffffffffffffffff1681526020019081526020015f205f8373ffffffffffffffffffffffffffffffffffffffff1673ffffffffffffffffffffffffffffffffffffffff1681526020019081526020015f2054905092915050565b6006602052805f5260405f205f915090505481565b5f33905090565b610bee8383836001610e03565b505050565b610bfd8183610fd2565b5050565b5f610c0c8484610b43565b90507fffffffffffffffffffffffffffffffffffffffffffffffffffffffffffffffff811015610c8e5781811015610c7f578281836040517ffb8f41b2000000000000000000000000000000000000000000000000000000008152600401610c769392919061192d565b60405180910390fd5b610c8d84848484035f610e03565b5b50505050565b5f73ffffffffffffffffffffffffffffffffffffffff168373ffffffffffffffffffffffffffffffffffffffff1603610d04575f6040517f96c6fd1e000000000000000000000000000000000000000000000000000000008152600401610cfb9190611962565b60405180910390fd5b5f73ffffffffffffffffffffffffffffffffffffffff168273ffffffffffffffffffffffffffffffffffffffff1603610d74575f6040517fec442f05000000000000000000000000000000000000000000000000000000008152600401610d6b9190611962565b60405180910390fd5b610d7f838383611051565b505050565b5f73ffffffffffffffffffffffffffffffffffffffff168273ffffffffffffffffffffffffffffffffffffffff1603610df4575f6040517f96c6fd1e000000000000000000000000000000000000000000000000000000008152600401610deb9190611962565b60405180910390fd5b610dff825f83611051565b5050565b5f73ffffffffffffffffffffffffffffffffffffffff168473ffffffffffffffffffffffffffffffffffffffff1603610e73575f6040517fe602df05000000000000000000000000000000000000000000000000000000008152600401610e6a9190611962565b60405180910390fd5b5f73ffffffffffffffffffffffffffffffffffffffff168373ffffffffffffffffffffffffffffffffffffffff1603610ee3575f6040517f94280d62000000000000000000000000000000000000000000000000000000008152600401610eda9190611962565b60405180910390fd5b8160015f8673ffffffffffffffffffffffffffffffffffffffff1673ffffffffffffffffffffffffffffffffffffffff1681526020019081526020015f205f8573ffffffffffffffffffffffffffffffffffffffff1673ffffffffffffffffffffffffffffffffffffffff1681526020019081526020015f20819055508015610fcc578273ffffffffffffffffffffffffffffffffffffffff168473ffffffffffffffffffffffffffffffffffffffff167f8c5be1e5ebec7d5bd14f71427d1e84f3dd0314c0f7b2291e5b200ac8c7c3b92584604051610fc3919061130b565b60405180910390a35b50505050565b5f73ffffffffffffffffffffffffffffffffffffffff168273ffffffffffffffffffffffffffffffffffffffff1603611042575f6040517fec442f050000000000000000000000000000000000000000000000000000000081526004016110399190611962565b60405180910390fd5b61104d5f8383611051565b5050565b5f73ffffffffffffffffffffffffffffffffffffffff168373ffffffffffffffffffffffffffffffffffffffff16036110a1578060025f828254611095919061162e565b9250508190555061116f565b5f5f5f8573ffffffffffffffffffffffffffffffffffffffff1673ffffffffffffffffffffffffffffffffffffffff1681526020019081526020015f205490508181101561112a578381836040517fe450d38c0000000000000000000000000000000000000000000000000000000081526004016111219392919061192d565b60405180910390fd5b8181035f5f8673ffffffffffffffffffffffffffffffffffffffff1673ffffffffffffffffffffffffffffffffffffffff1681526020019081526020015f2081905550505b5f73ffffffffffffffffffffffffffffffffffffffff168273ffffffffffffffffffffffffffffffffffffffff16036111b6578060025f8282540392505081905550611200565b805f5f8473ffffffffffffffffffffffffffffffffffffffff1673ffffffffffffffffffffffffffffffffffffffff1681526020019081526020015f205f82825401925050819055505b8173ffffffffffffffffffffffffffffffffffffffff168373ffffffffffffffffffffffffffffffffffffffff167fddf252ad1be2c89b69c2b068fc378daa952ba7f163c4a11628f55a4df523b3ef8360405161125d919061130b565b60405180910390a3505050565b5f5ffd5b5f73ffffffffffffffffffffffffffffffffffffffff82169050919050565b5f6112978261126e565b9050919050565b6112a78161128d565b81146112b1575f5ffd5b50565b5f813590506112c28161129e565b92915050565b5f602082840312156112dd576112dc61126a565b5b5f6112ea848285016112b4565b91505092915050565b5f819050919050565b611305816112f3565b82525050565b5f60208201905061131e5f8301846112fc565b92915050565b5f81519050919050565b5f82825260208201905092915050565b8281835e5f83830152505050565b5f601f19601f8301169050919050565b5f61136682611324565b611370818561132e565b935061138081856020860161133e565b6113898161134c565b840191505092915050565b5f6020820190508181035f8301526113ac818461135c565b905092915050565b6113bd816112f3565b81146113c7575f5ffd5b50565b5f813590506113d8816113b4565b92915050565b5f5f604083850312156113f4576113f361126a565b5b5f611401858286016112b4565b9250506020611412858286016113ca565b9150509250929050565b5f8115159050919050565b6114308161141c565b82525050565b5f6020820190506114495f830184611427565b92915050565b5f5f5f606084860312156114665761146561126a565b5b5f611473868287016112b4565b9350506020611484868287016112b4565b9250506040611495868287016113ca565b9150509250925092565b5f602082840312156114b4576114b361126a565b5b5f6114c1848285016113ca565b91505092915050565b5f60ff82169050919050565b6114df816114ca565b82525050565b5f6020820190506114f85f8301846114d6565b92915050565b5f5f604083850312156115145761151361126a565b5b5f611521858286016112b4565b9250506020611532858286016112b4565b9150509250929050565b7f4e487b71000000000000000000000000000000000000000000000000000000005f52602260045260245ffd5b5f600282049050600182168061158057607f821691505b6020821081036115935761159261153c565b5b50919050565b7f596f752073686f756c64207374616b65206669727374000000000000000000005f82015250565b5f6115cd60168361132e565b91506115d882611599565b602082019050919050565b5f6020820190508181035f8301526115fa816115c1565b9050919050565b7f4e487b71000000000000000000000000000000000000000000000000000000005f52601160045260245ffd5b5f611638826112f3565b9150611643836112f3565b925082820190508082111561165b5761165a611601565b5b92915050565b7f596f752073686f756c64207761697420666f72203720646179730000000000005f82015250565b5f611695601a8361132e565b91506116a082611661565b602082019050919050565b5f6020820190508181035f8301526116c281611689565b9050919050565b5f6116d3826112f3565b91506116de836112f3565b92508282039050818111156116f6576116f5611601565b5b92915050565b7f4e487b71000000000000000000000000000000000000000000000000000000005f52601260045260245ffd5b5f611733826112f3565b915061173e836112f3565b92508261174e5761174d6116fc565b5b828204905092915050565b5f611763826112f3565b915061176e836112f3565b925082820261177c816112f3565b9150828204841483151761179357611792611601565b5b5092915050565b7f416d6f756e742073686f756c642062652067726561746572207468616e2030005f82015250565b5f6117ce601f8361132e565b91506117d98261179a565b602082019050919050565b5f6020820190508181035f8301526117fb816117c2565b9050919050565b7f416d6f756e742073686f756c64206265206c657373207468616e207374616b655f8201527f6420616d6f756e74000000000000000000000000000000000000000000000000602082015250565b5f61185c60288361132e565b915061186782611802565b604082019050919050565b5f6020820190508181035f83015261188981611850565b9050919050565b7f416d6f756e742073686f756c6420626520657175616c20746f206d73672e76615f8201527f6c75650000000000000000000000000000000000000000000000000000000000602082015250565b5f6118ea60238361132e565b91506118f582611890565b604082019050919050565b5f6020820190508181035f830152611917816118de565b9050919050565b6119278161128d565b82525050565b5f6060820190506119405f83018661191e565b61194d60208301856112fc565b61195a60408301846112fc565b949350505050565b5f6020820190506119755f83018461191e565b9291505056fea2646970667358221220164c14f6f460cb021d5585f9abaf0c41a2cd9df1ce96d3bde0d9664c6896c58e64736f6c634300081e0033","linkReferences":{}},"methodIdentifiers":{"allowance(address,address)":"dd62ed3e","approve(address,uint256)":"095ea7b3","balanceOf(address)":"70a08231","decimals()":"313ce567","getTotalStaked()":"0917e776","name()":"06fdde03","pingForGettingReward()":"15bec3aa","stake(uint256)":"a694fc3a","stakedAmount(address)":"f9931855","stakedTime(address)":"06709555","symbol()":"95d89b41","toke_time()":"854b0cae","totalStaked()":"817b1cd2","totalSupply()":"18160ddd","transfer(address,uint256)":"a9059cbb","transferFrom(address,address,uint256)":"23b872dd","unstake(uint256)":"2e17de78"},"id":6}